:020000040800F2
:1000000000090020E11A0008A11E0008A31E000834
:10001000A71E0008AB1E0008AF1E0008000000006D
:10002000000000000000000000000000B31E0008F7
:10003000B51E000800000000B71E0008B91E000829
:10004000F71A0008F71A0008F71A0008F71A00084C
:10005000F71A0008F71A0008F71A0008F71A00083C
:10006000F71A0008F71A0008F71A0008F71A00082C
:10007000F71A0008F71A0008F71A0008F71A00081C
:10008000F71A0008F71A0008F71A0008F71A00080C
:10009000F71A0008F71A0008F71A0008F71A0008FC
:1000A000F71A0008F71A0008F71A0008F71A0008EC
:1000B000DF1E0008F71A0008F71A0008F71A0008F0
:1000C000F71A0008F71A0008F71A0008F71A0008CC
:1000D000F71A0008831C0008F71A0008F71A00082E
:1000E000F71A0008F71A0008F71A0008DFF80CD012
:1000F00002F01AFF00480047CB1C0008000900204E
:1001000031490143314A1160704770B50021002325
:100110000F22C4780CB32D4C246804F4E064C4F5B9
:10012000E064210AC1F10403CA40447804FA03F1EF
:100130008478144021430901254C0678A1550478A0
:1001400004F01F050124AC4005786D114FF0E02646
:1001500006EB8505C5F8004109E0047804F01F05A9
:100160000124AC401B4D0678761145F8264070BD41
:10017000194A0A400243154B1B1F1A60704739B1D8
:10018000124A121D12680243104B1B1D1A6006E032
:100190000E4A121D126882430C4B1B1D1A607047D9
:1001A000042808D14FF0E021096941F004014FF023
:1001B000E022116107E04FF0E021096921F004011C
:1001C0004FF0E022116170470000FA050CED00E0ED
:1001D00000E400E080E100E080FFFF1F10B504466E
:1001E000C549601A8C422FD009DCC448201810D0B1
:1001F000B0F5806F16D0B0F5006F4AD11BE0B0F5B6
:10020000806F2AD0B0F5006F30D0B0F5406F40D18C
:1002100035E00121042000F0F9FA0021042000F06B
:10022000F5FA37E00121082000F0F0FA002108205B
:1002300000F0ECFA2EE00121102000F0E7FA002196
:10024000102000F0E3FA25E00121202000F0DEFA82
:100250000021202000F0DAFA1CE00121402000F00B
:10026000D5FA0021402000F0D1FA13E001218020CE
:1002700000F0CCFA0021802000F0C8FA0AE0012149
:10028000080200F0C3FA00214FF4807000F0BEFABB
:1002900000E000BF00BF10BD10B50121084600F00E
:1002A000B5FA0021012000F0B1FA10BD2DE9F041AE
:1002B000024600250026002000230024002791F894
:1002C00003C00CF00F0591F803C01CF0100F03D011
:1002D00091F802C04CEA050591F800C0BCF1000F8E
:1002E00031D0146800202BE04FF0010C0CFA00F321
:1002F000B1F800C00CEA03069E4220D183004FF003
:100300000F0C0CFA03F7BC4305FA03FC4CEA040497
:1003100091F803C0BCF1280F06D14FF0010C0CFA84
:1003200000FCC2F814C00AE091F803C0BCF1480F09
:1003300005D14FF0010C0CFA00FCC2F810C0401CB3
:100340000828D1D31460B1F800C0BCF1FF0F34DD30
:10035000546800202EE000F1080C4FF0010808FA64
:100360000CF3B1F800C00CEA03069E4221D18300D1
:100370004FF00F0C0CFA03F7BC4305FA03FC4CEAF0
:10038000040491F803C0BCF1280F05D100F1080C5A
:1003900008FA0CF8C2F8148091F803C0BCF1480FB9
:1003A00007D100F1080C4FF0010808FA0CF8C2F868
:1003B0001080401C0828CED35460BDE8F0814FF671
:1003C000FF710180022181700421C17070470246D3
:1003D000002093680B4201D0012000E0002070470C
:1003E0000146886880B2704702460020D3680B42FD
:1003F00001D0012000E0002070470146C86880B2AB
:10040000704701617047416170470AB1016100E0C6
:1004100041617047C16070474FF480320A43826186
:100420008161826182698269704702460020344B93
:1004300018684FF68073184040EA02100843304BAA
:10044000186070472F49C8617047F0B50A4600230D
:100450000024002100252A4E7168C0F3034583B2B1
:1004600000F44016B6F5401F08D121F07061244E0B
:10047000766826F07066224F7E6012E000F48016E7
:10048000B6F5801F06D1032606FA05F4A14341F014
:10049000706106E0460D360103FA06F6B14341F0FD
:1004A000706122B1460D360103FA06F63143144E4F
:1004B0007160F0BD30B500228B071C0F0F2303FACB
:1004C00004F20F4B08338C1053F8243093430C4C38
:1004D00008348D1044F8253023468C1053F824300E
:1004E0008C07240F00FA04F42343054C08348D10C4
:1004F00044F8253030BD00000014014000F8FEBF74
:100500000000014000002042DC48006840F001008B
:10051000DA49086008464068D9490840D749486028
:1005200008460068D7490840D44908600846006872
:1005300020F4802008600846406820F4FE004860EF
:10054000002088607047CD49096821F48031CB4A8A
:1005500011601146096821F480211160B0F5803FD7
:1005600003D0B0F5802F0ED106E0C449096841F4EC
:100570008031C24A116007E0C049096841F4A021F6
:10058000BE4A116000E000BF00BF704710B50146D1
:100590000022002300204A11012A02D1B74C23680F
:1005A00006E0022A02D1B54C236A01E0B34C636A2B
:1005B00001F01F02012494401C4201D0012000E000
:1005C000002010BD38B5002000900024002500BF99
:1005D0003120FFF7DBFF05460098401C00901DB955
:1005E0000098B0F5A06FF3D13120FFF7CFFF08B12D
:1005F000012400E00024204638BD014600209F4A27
:10060000106820F0F80040EAC100106070479E4971
:100610000860704702460020984B586820F47C1010
:1006200042EA01031843954B5860704796490866A3
:10063000704701460020914A506820F003000843AB
:10064000506070478D48406800F00C0070470146CC
:1006500000208A4A506820F0F0000843506070473C
:1006600001460020854A506820F4E060084350604D
:10067000704701460020814A506820F4605040EAEB
:10068000C1005060704729B17C4A527A02437B4BCB
:100690005A7204E0794A527A8243784B5A72704710
:1006A0007A490860704701460020744A506820F477
:1006B00040400843506070470021754A11706F4AEE
:1006C00082F82010012802D0042808D103E001217B
:1006D0006F4A117004E005216D4A117000E000BFFF
:1006E00000BF70476B49086070476449096A01435D
:1006F000624A11627047674944390860704730B5F3
:1007000000210022002400235C4D6D6805F00C01DF
:1007100021B1042905D0082923D105E05E4D0560EB
:1007200022E05D4D05601FE0544D6D6805F47012C8
:10073000022505EB9242514D6D6805F480341CB9D9
:10074000564D554305600BE04C4D6D6815F4003F68
:1007500003D0524D5543056002E04F4D55430560AF
:1007600002E04D4D056000BF00BF444D6D6805F0CF
:10077000F00109094A4D6B5C0568DD4045603F4D5D
:100780006D6805F4E061090A454D6B5C4568DD4024
:1007900085603A4D6D6805F46051C90A404D6B5C47
:1007A0004568DD40C560354D6D6805F44041890BF5
:1007B0003C4D6B5CC568B5FBF3F5056130BD29B1F7
:1007C0002E4A526902432D4B5A6104E02B4A52696A
:1007D00082432A4B5A61704729B1284A92690243E1
:1007E000264B9A6104E0254A92698243234B9A6121
:1007F000704729B1214AD2690243204BDA6104E0F3
:100800001E4AD26982431D4BDA61704729B11B4AE7
:10081000D2680243194BDA6004E0184AD268824376
:10082000164BDA60704729B1144A12690243134B20
:100830001A6104E0114A12698243104B1A61704731
:1008400014494039086070470F49C86470470B4924
:10085000C87170470948406A40F080700749486293
:10086000704701460020054A92680A4201D00120E3
:1008700000E0002070470149887270470010024074
:100880000000FFF8FFFFF6FE00004242D80042429F
:10089000201002408004424200127A0000093D000C
:1008A000000000201000002010B50446BD482018AC
:1008B0000FD0B0F5806F16D0B0F5784F1DD1012163
:1008C0000803FFF7A3FF00214FF48050FFF79EFFBE
:1008D00014E001218803FFF7A6FF00214FF48040B8
:1008E000FFF7A1FF0AE00121C803FFF79CFF0021E9
:1008F0004FF40040FFF797FF00E000BF00BF10BDBE
:1009000010B50022028802F441520B884C88234320
:100910008C882343CC8823430C8923434C8923436D
:100920008C892343CC8923431A430280838B4FF263
:10093000FF74234083830B8A038210BD2DE9F047A7
:1009400086B005460C464FF0000902274FF000081C
:100950004FF0010A0026A88B4FF240010840A883FF
:1009600002202884B5F81C902089022801D100BFFC
:1009700031E0A08810B94FF0010A01E04FF0020AFF
:1009800001A8FFF7BCFEE088B0F5007F0AD101980E
:1009900000EB8000400021890902B0FBF1F0401D0E
:1009A00086B20BE04FEA4A1021894843019901EBD6
:1009B00081014900B1FBF0F0401D86B20A20B6FB70
:1009C000F0F606F00108A6EB0800C0F34F074FF65B
:1009D000FF7000EA0828022F01DBFF2F02DD02274B
:1009E0004FF0000847EA0800E1880843288420887F
:1009F00040F4006061880843A18808436189084386
:100A000040EA0909A5F81C9006B0BDE8F08700216E
:100A1000018041808180C180018141818181C181CA
:100A20000721018270470021018041808180C180BF
:100A30000221018100214181704721B1028842F0E9
:100A40004002028004E002884FF6BF731A40028021
:100A5000704721B1828B42F48062828304E0828BF2
:100A60004FF6FF331A408283704730B500240023CD
:100A70000C110125A540ABB21AB185881D438580B4
:100A800002E085889D43858030BD1AB183880B4381
:100A9000838002E083888B43838070478181704725
:100AA000014688897047A1F57E42FF3A04D002884A
:100AB00042F48072028004E002884FF6FF631A401D
:100AC0000280704721B1828842F00402828004E0F3
:100AD00082884FF6FB731A408280704702884FF27B
:100AE000FF731A40028002880A430280704701881F
:100AF00041F480510180704721B1028842F40052D4
:100B0000028004E002884DF6FF731A4002807047AD
:100B100002460020012901D0108B00E0908A704726
:100B20000146088A7047B1F5804F04D1028842F42B
:100B30008042028004E002884BF6FF731A40028074
:100B400070470246002013890B4201D0012000E0CB
:100B500000207047CA4302817047F0B5024600206A
:100B600000240023002501F00F070126BE40B4B287
:100B70000B1101269E40B3B2968806EA030516893A
:100B8000264202D00DB1012000E00020F0BD10B5DA
:100B9000002201F00F040123A3409AB2D343038142
:100BA00010BD000000C8FFBF10B50446F749601A29
:100BB0008C4245D00CDCB4F1804F1DD0F448201895
:100BC00023D0B0F5806F29D0B0F5006F54D12EE05E
:100BD000B0F5806F3DD0B0F58E3F03D0B0F5923FB9
:100BE0004AD13FE00121C802FFF710FE00214FF477
:100BF0000060FFF70BFE40E001210846FFF713FEFF
:100C000000210120FFF70FFE37E001210220FFF74E
:100C10000AFE00210220FFF706FE2EE0012104203B
:100C2000FFF701FE00210420FFF7FDFD25E0012173
:100C30000820FFF7F8FD00210820FFF7F4FD1CE075
:100C400001211020FFF7EFFD00211020FFF7EBFD41
:100C500013E001212020FFF7E6FD00212020FFF70F
:100C6000E2FD0AE001214803FFF7D0FD00214FF427
:100C70000050FFF7CBFD00E000BF00BF10BD0288B1
:100C800002F08F020280CA884B881A4303881A43F5
:100C900002808A8882850A880285BE4A904202D0F4
:100CA000BD4A904201D10A7A0286012282827047AF
:100CB00070B5002400220023058C4FF6FE763540E7
:100CC0000584028C8388048B4FF68F752C400D8829
:100CD0002C43751E2A400D892A434D882A43CD880E
:100CE0008586AC4DA84202D0AB4DA84213D14FF639
:100CF000F7752A404D892A434FF6FB752A408D88A7
:100D00002A4347F6FF652B4047F6FF552B408D8958
:100D10002B43CD892B4383800483028470BD70B53F
:100D2000002400220023058C4FF6EF763540058421
:100D3000028C8388048B48F6FF752C400D884FF693
:100D4000FF7606EA05252C434FF6DF752A400D890C
:100D500006EA05152A434D8806EA05152A43CD887B
:100D600005878C4DA84202D08B4DA8421DD14FF66D
:100D70007F752A404D894FF6FF7606EA05152A430E
:100D80004FF6BF752A408D8806EA05152A4347F6B7
:100D9000FF352B4047F2FF752B408D8906EA85050C
:100DA0002B43CD8906EA85052B4383800483028487
:100DB00070BD70B5002400220023058C4FF6FF663D
:100DC00035400584028C8388848B4FF68F752C40C8
:100DD0000D882C434FF6FF552A400D894FF6FF76BC
:100DE00006EA05252A434D8806EA05252A43CD88CB
:100DF0008587684DA84202D0674DA8421DD14FF2A9
:100E0000FF752A404D894FF6FF7606EA05252A43ED
:100E10004FF6FF352A408D8806EA05252A4346F617
:100E2000FF752B4045F6FF752B408D8906EA0515A9
:100E30002B43CD8906EA05152B43838084830284E6
:100E400070BD70B5002400220023058C4EF6FF769D
:100E500035400584028C8388848B48F6FF752C40CE
:100E60000D884FF6FF7606EA05252C434DF6FF75F3
:100E70002A400D8906EA05352A434D8806EA0535DC
:100E80002A43CD88A0F84050424DA84202D0424D9E
:100E9000A84207D1C3F30D038D894FF6FF7606EA0A
:100EA00085152B4383808483028470BD828B4FF22F
:100EB000FF331A408283828B4FF6FF7303EA0123CC
:100EC0001A4382837047F0B50C4615460021002274
:100ED0000026078C4EF6FF7C07EA0C070784818BFF
:100EE000028C4FF6FF7707EA043640F6FF47394099
:100EF0004FF6FF7707EA05274FF6FF7C0CEA033C25
:100F000047EA0C0739434DF6FF773A4046F48057DD
:100F10003A4381830284F0BD828B4FF6F3731A400B
:100F20008283828B0A4382837047F0B50C46154654
:100F3000002100220026078C4FF6FF6C07EA0C0701
:100F40000784818B028C4FF6FF7707EA04264FF661
:100F50000C7739404FF6FF7707EA03172F433943E1
:100F60004FF6FF573A4046F480773A438183028434
:100F7000F0BD028B4FF2FF331A400283028B4FF613
:100F8000FF7303EA01231A430283704700100040F5
:100F900000FCFFBF002C014000340140F0B50C46BE
:100FA0001546002100220026078C4FF6EF7C07EA49
:100FB0000C070784018B028C4FF6FF7707EA0416B3
:100FC00040F6FF4739404FF6FF7707EA03373943CA
:100FD0004FF6FF7707EA052739434FF6DF773A40A8
:100FE00046F010073A4301830284F0BD028B4FF6AE
:100FF000F3731A400283028B0A4302837047F0B5F1
:101000000C46154600210022068C4FF6FE773E4026
:101010000684018B028C4FF60C7631407E1C06EA6A
:1010200003162E4331437E1E324044F00106324304
:1010300001830284F0BD70B505460C46208850B986
:101040002389A28861882846FFF7D9FFE1882846CE
:10105000FFF7CCFF25E0208804280AD12389A28845
:1010600061882846FFF79AFFE1882846FFF781FF4D
:1010700017E0208808280AD12389A2886188284699
:10108000FFF753FFE1882846FFF746FF09E0238971
:10109000A28861882846FFF716FFE1882846FFF7F7
:1010A00005FF70BD2DE9F04105460C4600260127DD
:1010B000608808B9022600E00026A088012801D136
:1010C000022700E001272088A0B92389A28861882F
:1010D0002846FFF794FFE1882846FFF787FF23891A
:1010E0003A4631462846FFF759FFE1882846FFF780
:1010F00040FF13E02389A28861882846FFF74EFF4E
:10110000E1882846FFF735FF23893A4631462846CD
:10111000FFF775FFE1882846FFF768FFBDE8F0811B
:101120000A884B881A438B881A43CB881A430B8949
:101130001A434B891A438B891A43A0F844207047FD
:101140004FF6FF71818000210180C18041800172D2
:1011500070470021018041808180C18001814181EF
:101160008181C181704700210180418001218180FE
:101170000021C18001817047002101804180818070
:10118000C180018141818181704721B1028842F093
:101190000102028004E0028840F2FE331A4002801D
:1011A000704731B1B0F8442042F40042A0F8442026
:1011B00005E0B0F84420C2F30E02A0F844207047C6
:1011C0001AB183890B43838102E083898B43838136
:1011D00070478182704741EA0203A0F848307047A7
:1011E0001AB183890B43838102E083898B43838116
:1011F000704701894FF6F8721140018170470A4625
:10120000002101894FF68F73194011430181704706
:1012100030B504460D4629462046FFF7F0FF2089E9
:1012200040F00700208130BD2DE9F04104460D4615
:1012300016461F46602D06D13B4601223146204608
:10124000FFF7ACFE05E03B46012231462046FFF7A2
:10125000D6FE29462046FFF7D2FF208940F007003E
:101260002081BDE8F08170B50C4600210189C9B22A
:1012700044EA02054FF6FF7606EA03263543294382
:10128000018170BD2DE9F04105460E46174698468E
:10129000002443463A4631462846FFF7E4FF2C89AE
:1012A0004FF6F870044044F007044FF68F70044086
:1012B00044F070042C81BDE8F081F0B504460D4681
:1012C00016461F463B46324629462046FFF7CBFFCF
:1012D000208940F480402081F0BD018582827047E2
:1012E0000A460021018840F28F33194011430180E2
:1012F0007047F0B50C4615461E460021002200231B
:101300000189028B038C4FF6F877394021434FF661
:10131000FC473A4040F201173A434FF6DD773B4035
:101320004FF6FF7707EA06172F433B4301810283FD
:101330000384F0BD0A460021018B4FF68F731940DC
:101340001143018370470A460021018B48F6FF7361
:1013500019404FF6FF7303EA0223194301837047D4
:101360000A460021818B4FF68F7319401143818308
:1013700070470A460021818B48F6FF7319404FF6EB
:10138000FF7303EA022319438183704721B1028866
:1013900042F08002028004E0028840F27F331A406B
:1013A0000280704721B1828842F00402828004E00A
:1013B00082884FF6FB731A408280704721B1828881
:1013C00042F00802828004E082884FF6F7731A40E8
:1013D0008280704721B1828842F00102828004E05D
:1013E00082884FF6FE731A40828070470A460021B9
:1013F000018B4FF6F77319401143018370470A467A
:101400000021018B4FF2FF7319404FF6FF7303EA7F
:1014100002231943018370470A460021818B4FF64E
:10142000F77319401143818370470A460021818B6D
:101430004FF2FF7319404FF6FF7303EA022319437B
:10144000818370470A460021018B4FF6FB731940D8
:101450001143018370470A460021018B4FF6FF3389
:1014600019404FF6FF7303EA0223194301837047C3
:101470000A460021818B4FF6FB731940114381838B
:1014800070470A460021818B4FF6FF3319404FF613
:10149000FF7303EA02231943818370470A46002140
:1014A000018B4FF67F7319401143018370470A4641
:1014B0000021018BC1F30E014FF6FF7303EA0223F3
:1014C0001943018370470A460021818B4FF67F73D1
:1014D00019401143818370470A460021818BC1F373
:1014E0000E014FF6FF7303EA02231943818370470D
:1014F0000A460021018C4FF6FD7319401143018407
:1015000070470A460021018C4FF6F77319401143CA
:10151000018470470A460021018C4FF6DF731940A1
:101520004FF6FF7303EA02131943018470470A461A
:101530000021018C4FF67F7319404FF6FF7303EAC9
:1015400002131943018470470A460021018C4FF6AB
:10155000FF5319404FF6FF7303EA02231943018436
:1015600070470A460021018C4FF2FF7319404FF675
:10157000FF7303EA02231943018470470A460021DE
:10158000018C4DF6FF7319404FF6FF7303EA0233E7
:1015900019430184704710B5038C01248C40A34388
:1015A0000384038C02FA01F4A4B22343038410BD24
:1015B00010B5038C04248C40A3430384038C02FAEB
:1015C00001F4A4B22343038410BD30B5038C01247D
:1015D0008C40A343038409B1082918D100F11803F2
:1015E00003EB61031B684FF68F74234000F118046E
:1015F00004EB6104236000F1180303EB61031B6833
:10160000134300F1180404EB610423601FE00B1F77
:10161000C3F34E0400F118031B5948F6FF7423402E
:101620000C1FC4F34E0500F1180463510B1FC3F3E4
:101630004E0400F118031B594FF6FF7404EA02240C
:1016400023430C1FC4F34E0500F11804635130BD51
:1016500021B1028842F00202028004E0028840F2D6
:10166000FD331A400280704721B1028842F0040223
:10167000028004E0028840F2FB331A400280704787
:1016800021B1828842F08002828004E082884FF695
:101690007F731A4082807047028840F2F7331A4005
:1016A000028002880A430280704782884FF68F7357
:1016B0001A40828082880A438280704702894FF6EE
:1016C000F8731A40028102890A4302817047028935
:1016D0004FF67F731A40028102890A4302817047E4
:1016E0008184704781857047818670470187704784
:1016F00081877047A0F8401070470288D2B20280FC
:1017000002880A43028070470146888E704701466E
:10171000088F70470146888F70470146B1F8400036
:1017200070470146888C70470146088D7047024615
:101730000020138A0B4201D0012000E000207047F6
:10174000CA430282704730B50246002000230024BD
:10175000158A05EA0103958905EA010413B10CB164
:10176000012000E0002030BDCA4302827047000023
:1017700010B50446D749601A8C422BD006DCD648F7
:10178000201813D0B0F5806F38D119E0B0F5806F14
:101790002AD0B0F56C4F31D101218803FFF736F81C
:1017A00000214FF48040FFF731F828E00121480480
:1017B000FFF739F800214FF40030FFF734F81EE04E
:1017C00001218804FFF72FF800214FF48020FFF754
:1017D0002AF814E00121C804FFF725F800214FF48E
:1017E0000020FFF720F80AE001210805FFF71BF8A9
:1017F00000214FF48010FFF716F800E000BF00BF93
:1018000010BD2DE9F04786B005460E460024A246DD
:1018100000BF00BF00272F462C8A4CF6FF70044003
:10182000F08804432C82AC894EF6F3100440B08853
:1018300031890843718908430443AC81AC8A4FF66F
:10184000FF400440B0890443AC8201A8FEF757FF73
:10185000A248874202D1DDF810A001E0DDF80CA01B
:101860000AEBCA0000EB0A1031688900B0FBF1F8FE
:101870006420B8FBF0F004012009642101FB108909
:10188000322000EB0910B0FBF1F000F00F00044330
:101890002C8106B0BDE8F0874FF41651016000219D
:1018A0008180C18001810C214181002181817047AB
:1018B00010B502460020108A4FF2FF0318400B8833
:1018C0004C8823438C882343CC88234318431082BD
:1018D00010BD0021018041808180C180704721B10D
:1018E000828942F40052828104E082894DF6FF73BE
:1018F0001A4082817047F0B5034600240026002577
:1019000000201846C1F3421401F01F06012707FA10
:1019100006F5012C01D10C3004E0022C01D110306D
:1019200000E014301AB107682F43076002E007682F
:10193000AF430760F0BD1AB1838A0B43838202E094
:10194000838A8B4383827047028A4FF6F0731A4072
:101950000282028A0A430282704782894FF2FF7331
:101960001A40828182890A438281704721B182892B
:1019700042F00202828104E082894FF6FD731A4030
:1019800082817047028A4FF6DF731A400282028A10
:101990000A430282704721B1028A42F480420282E5
:1019A00004E0028A4BF6FF731A4002827047C1F3CB
:1019B00008028280704701468888C0F3080070479B
:1019C000818941F0010181817047028BD2B202838B
:1019D000028B42EA012202837047028B02F47F42AB
:1019E0000283028B0A430283704721B1828A42F04C
:1019F0002002828204E0828A4FF6DF731A408282DC
:101A0000704721B1828A42F01002828204E0828A09
:101A10004FF6EF731A408282704721B1828A42F0FA
:101A20000802828204E0828A4FF6F7731A408282AB
:101A30007047828A4FF6FB731A408282828A0A4379
:101A40008282704721B1828A42F00202828204E0DF
:101A5000828A4FF6FD731A40828270470246002048
:101A600013880B4201D0012000E000207047CA43D8
:101A70000280704770B502460B4600240021002505
:101A80000020C3F3421503F01F01012606FA01F1FD
:101A9000012D02D19689314006E0022D02D1168A2D
:101AA000314001E0968A31401C12012606FA04F406
:101AB0001688344011B10CB1012000E0002070BD47
:101AC00010B5002200230A1201249440A3B2DC4383
:101AD000048010BD004C004000BCFFBF0038014036
:101AE00005480047FEE7FEE7FEE7FEE7FEE7FEE704
:101AF000FEE7FEE7FEE7FEE7ED0000080CB500207C
:101B0000019000904748006840F4803045490860E3
:101B100000BF4448006800F4003000900198401C69
:101B20000190009818B90198B0F5A06FF1D13D4827
:101B3000006810F4003F02D00120009001E0002076
:101B400000900098012843D13748006840F0100009
:101B5000354908600846006820F003000860084620
:101B6000006840F0020008602E4840682D49486037
:101B70000846406848600846406840F48060486015
:101B80000846406820F47C1048600846406840F4ED
:101B9000E81048600846006840F08070086000BFA8
:101BA0002048006810F0007FFAD01E48406820F0FE
:101BB00003001C4948600846406840F00200486045
:101BC00000BF1848406800F00C000828F9D101E077
:101BD00000BFFEE70CBD10B5FFF790FF10BD10B5BC
:101BE0001048006840F001000E490860084640684F
:101BF0000E4908400B494860084600680C490840F7
:101C0000084908600846006820F4802008600846FB
:101C1000406820F4FE00486000208860FFF7DBFF8A
:101C200010BD000000100240002002400000FFF83C
:101C3000FFFFF6FE002000E0401C40F6FF718842E6
:101C4000FAD37047002007E0002100E0491C4FF65E
:101C5000FF729142FAD3401C0F28F5D3704770B53C
:101C600004460D466A480088E1B26948FFF79FFEC6
:101C700000BF40216648FFF7F1FE0128F9D1204658
:101C800070BD10B5634800780E2815DA6248006808
:101C900090B940F225515E48FFF7ECFE78B15C4800
:101CA000FFF789FEC1B25B4802780078401C594BAF
:101CB00018705A48815402E001205749086040F2E8
:101CC00025515348FFF7FCFE10BD08B5FFF787FF0D
:101CD00000F0CBF900F0D7F900F04CF900F0F9FA78
:101CE00000F0A7FA4E484F49086000F0F3F900F001
:101CF00010FA00204C490860401E091D086000F0E1
:101D00009FFE4AA20021012000F06EFE4BA210218E
:101D1000012000F069FE4DA22021012000F064FEA8
:101D20004DA23021012000F05FFE4DA230213F2066
:101D300000F05AFE002003E04B490854411CC8B291
:101D40002028F9DB20224849002001F012F8202247
:101D50003349002001F071F820223149424800F057
:101D600093FB424908700846007828B940A2202118
:101D7000012000F039FE04E041A22021012000F002
:101D800033FE44E0012010230090414802783021C6
:101D9000084600F043FD3E480078401C3C4908706E
:101DA000084600787E2801DD2020087010200323DB
:101DB0000090374802783021672000F0CBFD35488D
:101DC0000078FF280ED13448007808B9012000E0DF
:101DD0000020314908704FF4967000F0A4FA0020FA
:101DE0002C4908702C48007888B94FF400512B48D2
:101DF000FEF709FB4FF47A7000F095FA4FF40051AA
:101E00002648FEF7FEFA4FF47A7000F08CFAB9E734
:101E100000380140600000205C000020AC00002081
:101E2000BC0000208C00002000080140302E393614
:101E300027204F4C45442054455354006D6375642E
:101E400065762E74616F62616F202000323031340C
:101E50002D30362D3136000041534349493A200098
:101E6000434F44453A200000180000209100002014
:101E7000456570726F6D2D2D4F4B202000000000C6
:101E8000456570726F6D2D2D4572726F7220200046
:101E9000900000205A0000205B000020001001404C
:101EA000704700BFFEE700BFFEE700BFFEE700BFD0
:101EB000FEE770477047704710B500F03CFA2848BD
:101EC000006830B90120274908604FF47A7024492E
:101ED000086023480068401E2149086010BD10B505
:101EE00002214807FFF72FFCA0B102214807FFF7A6
:101EF0003BFC4FF08040FFF707FC1B490880084679
:101F000000881A4A1288104481B24FF08040FFF7CF
:101F1000EBFB18E004210807FFF715FC98B104213A
:101F20000807FFF721FC4FF08040FFF7F0FB0E4958
:101F30000880084600880E4A1288104481B24FF08B
:101F40008040FFF7D3FB4FF08040FFF7EAFB0649E4
:101F5000088000214FF08040FFF7C2FB10BD000059
:101F6000980000209C000020A0000020A400002079
:101F7000A600002008B52020ADF8000010208DF844
:101F8000030003208DF802006946F848FEF78EF939
:101F90004FF44060ADF8000010208DF803000320DE
:101FA0008DF802006946F248FEF780F901214820C9
:101FB000FEF712FC01213C20FEF70EFC4FF400500E
:101FC000ADF8000010208DF8030003208DF802000A
:101FD0006946E748FEF76AF90120ADF8000048209D
:101FE0008DF8030003208DF802006946E148FEF7F2
:101FF0005DF94020ADF8000010208DF803000220AC
:102000008DF802006946D948FEF750F98020ADF8F6
:10201000000010208DF8030002208DF802006946B0
:10202000D248FEF743F94021D048FEF7EAF9802173
:10203000CE48FEF7E6F94FF48060ADF800000420CA
:102040008DF803006946CB48FEF730F94FF4007075
:10205000ADF8000003208DF8020018208DF8030071
:102060006946C448FEF722F908BD10B501210846AB
:10207000FEF7A5FB01218803FEF7AEFB0121084610
:10208000FEF7B7FB10BD08B500214FF00060FEF76A
:102090006FF84FF4E060FEF733F825208DF800006C
:1020A00000208DF801008DF8020001208DF803005A
:1020B0006846FEF72AF81C208DF8000000208DF8F5
:1020C000010001208DF802008DF803006846FEF73C
:1020D0001CF808BD1FB54FF4165000900020ADF855
:1020E0000400ADF80600ADF80800ADF80C000C20B7
:1020F000ADF80A006946A048FFF783FB012240F2D1
:1021000025519D48FFF7F7FB01219B48FFF7E7FBAF
:102110001FBD00B587B04FF6FF70ADF8140000206A
:10212000ADF81000ADF81600ADF8120004A94FF09C
:102130008040FEF7A4FD012204210807FFF7CDF837
:102140000020ADF800000120ADF802008B480088A7
:10215000ADF806000020ADF8080069464FF0804059
:10216000FEF7A6FD00214FF08040FFF73FF9012068
:10217000ADF8020082480088ADF8060069464FF0CD
:102180008040FEF7CCFD00214FF08040FFF737F98B
:10219000012206219007FFF713F801218807FEF7B7
:1021A000F4FF07B000BD00B587B0012141F2040083
:1021B000FEF712FBE020ADF8040003208DF80600C6
:1021C00018208DF8070001A96A48FEF76FF8102063
:1021D000ADF8040003208DF8060010208DF80700EC
:1021E00001A96448FEF762F80020ADF808004FF43A
:1021F0008270ADF80A000020ADF80C000220ADF8A6
:102200000E000120ADF810004002ADF812000020D1
:10221000ADF81400ADF816000720ADF8180002A9BB
:102220005848FEF76DFB01215648FEF706FC07B043
:1022300000BD00B587B001218803FEF7DAFA01215D
:102240000820FEF7C9FA4FF46040ADF804000320FF
:102250008DF8060018208DF8070001A94348FEF705
:1022600025F84FF48050ADF8040003208DF80600E7
:1022700010208DF8070001A93C48FEF717F84FF42D
:1022800080513A48FEF7BFF80020ADF808004FF43F
:102290008270ADF80A000020ADF80C000220ADF805
:1022A0000E000120ADF810004002ADF81200002031
:1022B000ADF81400ADF816000720ADF8180002A91B
:1022C0003148FEF71DFB01212F48FEF7B6FB07B092
:1022D00000BD30B52D4800684FF47A72B0FBF2F1C2
:1022E000B1F1807F00D31DE021F07F40401E4FF010
:1022F000E022506150170F22002807DA13071D0E45
:10230000234B00F00F04241F1D5503E013071C0E80
:10231000204B1C5400BF00204FF0E02290610720AA
:10232000106100BF30BD1C49086000BF1A49096830
:102330000029FBD170471848006820B11648006892
:10234000401E1549086070470246002105E0491CFF
:10235000B1F5FA6F01D9002070470A48008910F0E2
:10236000020FF4D00748828100211DE0000C0140DB
:10237000001001400008014000380140A400002086
:10238000A600002000300140003800406C2F0008FB
:1023900018ED00E000E400E0A8000020491CB1F5C1
:1023A000FA6F01D90020D7E71548008910F0010F16
:1023B000F4D013488089C0B2CEE70246002105E080
:1023C000491CB1F5FA6F01D9002070470D4800880B
:1023D00010F0020FF4D00B48001D0280002105E030
:1023E000491CB1F5FA6F01D90020EEE705480088D5
:1023F00010F0010FF4D00348001D0088C0B2E4E7DC
:10240000003001400838004070B504460D460026F3
:102410000CE000BF80213348FFF720FB0028F9D0F3
:1024200021783048FFF7C3FA641C761CAE42F0D323
:1024300070BD10B5034642B9002003E0002403F844
:10244000014B401C8842F9D307E0002003E0FF2441
:1024500003F8014B401C8842F9D310BD10B500238E
:1024600004E011F8014B00F8014B5B1C9342F8D3D8
:1024700010BD10B5002304E011F8014B00F8014B2A
:102480005B1C9342F8D310BD30B50346002409E02D
:1024900018780D78A84202D15B1C491C01E001208C
:1024A00030BD641C9442F3D30020F9E73EB50446E6
:1024B0000D4601208DF8000005208DF801008DF8F3
:1024C00002408DF803509DF80100401E81B20122A8
:1024D000684600F009F89DF80100411C6846FFF7C6
:1024E00093FF3EBD003801407CB503460C460020FA
:1024F0000190002112E0585C9DF8055068404E4D57
:1025000035F8100000909DF801009DF804506840D7
:102510008DF80100BDF800000190491CA142EAD3EA
:10252000012A07D19DF801600846491C1E549DF8F8
:1025300000005854BDF804007CBD03460A46002143
:1025400003E0585C00B102E0491C9142F9D300BF9E
:10255000914201D100207047002104E0585CFF281F
:1025600000D002E0491C9142F8D300BF914201D152
:10257000FF20F0E70120EEE71CB5024600200190A5
:10258000002313E010789DF8054060402A4C34F891
:10259000100000909DF801009DF8044060408DF807
:1025A0000100BDF800000190521C5B1C8B42E9D376
:1025B0009DF805009DF8044060408DF805009DF8E9
:1025C00005001CBD10B502460B460020002103E0AB
:1025D000545C60404C1CE1B29942F9DB10BD70B50F
:1025E0000346144646F26330002211E09E5C7040C0
:1025F00000250AE010F0010F04D048F2084686EAF0
:10260000500000E040086E1CF5B2082DF2DB521CB1
:10261000A242EBD30870060A4E7070BD08B50146A1
:102620006A46C8781070887850704878907008783A
:10263000D070009808BD0000802F000870B50546D6
:102640000C4624B10221F948FDF7DBFE03E002212C
:10265000F648FDF7D8FE4FF48051F448FDF7D3FE5D
:102660002846FFF7AAFE4FF48051F048FDF7C9FE57
:102670000221EE48FDF7C5FE70BD70B500241CE0D8
:1026800004F1B001C8B20021FFF7D8FF00210220F9
:10269000FFF7D4FF00211020FFF7D0FF002508E04E
:1026A000E34901EBC501085D0121FFF7C7FF681C85
:1026B000C5B2802DF4DB601CC4B2082CE0DB70BD19
:1026C00010B500218D20FFF7B9FF00211420FFF77E
:1026D000B5FF0021AF20FFF7B1FF10BD10B50021FD
:1026E0008D20FFF7ABFF00211020FFF7A7FF00218F
:1026F000AE20FFF7A3FF10BD70B500240CE000254D
:1027000006E00020CA4901EBC5010855681CC5B2A6
:10271000802DF6DB601CC4B2082CF0DBFFF7ADFFA8
:1027200070BD70B505460C462646E11704EB5171A5
:10273000C910C1F1B701C8B20021FFF77FFF102116
:1027400041EA15100021FFF779FF05F00F00002185
:10275000FFF774FF70BD2DE9F04705460C4617469C
:102760004FF0000921462846FFF7DBFF7F2D01DCF3
:10277000402C01DDBDE8F0872046E11704EB5171E4
:10278000C910C1F10701CEB2E11704EB5171C910B4
:10279000A4EBC10101F0FF08C8F107010120884046
:1027A00000F0FF0957B1A24800EBC500805D40EA88
:1027B00009009F4901EBC501885509E09C4800EBE1
:1027C000C500805D20EA0900994901EBC5018855E3
:1027D000974901EBC501885D0121FFF72FFF00BF7D
:1027E000C8E72DE9F04706460F4690469946DDF8C2
:1027F00020A034460CE03D4606E0524629462046DD
:10280000FFF7A9FF681CC5B24D45F6DD601CC4B2D8
:102810004445F0DDFFF731FFBDE8F0872DE9F05FBB
:1028200080460C4615461E46A346A5F12000C5B2BB
:1028300000273EE00C2E07D105EB45007D4901EB5A
:10284000800010F8079004E07B4800EB051010F8BA
:1028500007904FF0000A26E019F0800F05D02146BE
:1028600040460A9AFFF777FF09E00A9808B9012065
:1028700000E00020024621464046FFF76CFF4FEA89
:1028800049604FEA1069601CC4B2A4EB0B00B0426F
:1028900005D15C4608F1010000F0FF0806E00AF1EE
:1028A000010000F0FF0ABAF1080FD5DB00BF781C69
:1028B000C7B2B742BEDBBDE8F09F2DE9F05F064628
:1028C0000C461746A2464FF0010B002533E05B484B
:1028D00000EB471010F805804FF0000925E018F0D4
:1028E000800F05D05A4621463046FFF734FF0AE0F4
:1028F000BBF1000F01D1012000E00020024621467B
:102900003046FFF728FF4FEA48604FEA1068601C26
:10291000C4B2A4EB0A00102803D15446701CC6B2FE
:1029200006E009F1010000F0FF09B9F1080FD6DB5C
:1029300000BF681CC5B2202DC9DBBDE8F09F10B5F3
:102940000246012000E050430B00A1F10104E1B276
:10295000F9D110BD2DE9FF4F81B0074691461E46C3
:102960000E9D4FF0000A002439E0301B401EC1B21A
:102970000A20FFF7E4FFB9FBF0F00A21B0FBF1F207
:1029800001FB1208BAF1000F16D1701EA04213DD30
:10299000B8F1000F0ED10120AB4605EBDB714910F9
:1029A00001FB04710090C8B22B4620220299FFF768
:1029B00035FF12E04FF0010A0120AB4605EBDB7159
:1029C000491001FB04710090C8B208F13001CAB28D
:1029D0002B460299FFF722FF00BF601CC4B2B4422D
:1029E000C3DB05B0BDE8F08FF8B505460E461446CA
:1029F00018E07F2D03DD002506F11000C6B23F2E42
:102A000004DD002005460646FFF776FE0120009013
:102A10002278102331462846FFF700FF05F1080011
:102A2000C5B2641C20780028E3D1F8BD000C014039
:102A3000FC00002080310008F4350008E43B000869
:102A400008B501210820FDF7C7FE0220ADF80000FF
:102A500010208DF8030003208DF8020069463548E8
:102A6000FDF724FC0021AE20FFF7E8FD0021D52072
:102A7000FFF7E4FD00215020FFF7E0FD0021A82032
:102A8000FFF7DCFD00213F20FFF7D8FD0021D32018
:102A9000FFF7D4FD00210846FFF7D0FD00214020BC
:102AA000FFF7CCFD00218D20FFF7C8FD0021142089
:102AB000FFF7C4FD00212020FFF7C0FD0021022008
:102AC000FFF7BCFD0021A120FFF7B8FD0021C020C9
:102AD000FFF7B4FD0021DA20FFF7B0FD002112203E
:102AE000FFF7ACFD00218120FFF7A8FD0021EF20BA
:102AF000FFF7A4FD0021D920FFF7A0FD0021F12060
:102B0000FFF79CFD0021DB20FFF798FD002130201E
:102B1000FFF794FD0021A420FFF790FD0021A620DF
:102B2000FFF78CFD0021AF20FFF788FDFFF7E4FDE4
:102B300008BD0000000C014008B58020ADF8000081
:102B400010208DF8030002208DF802006946F3483A
:102B5000FDF7ACFB08BD08B58020ADF800004820AB
:102B60008DF8030002208DF802006946EB48FDF75E
:102B70009DFB08BD014606E0002002E000BF421CAC
:102B800090B23228FADB0A00A1F10103D9B2F3D1E5
:102B9000704710B5FFF7D0FF8021E048FDF731FC0A
:102BA0004021DE48FDF72DFC0420FFF7E3FF8021E4
:102BB000DA48FDF728FC0420FFF7DCFF4021D74866
:102BC000FDF721FC10BD10B5FFF7B6FF4021D3483B
:102BD000FDF719FC8021D148FDF715FC0420FFF713
:102BE000C9FF4021CD48FDF70CFC0420FFF7C2FFD0
:102BF0008021CA48FDF705FC10BD70B5C84CFFF731
:102C0000AAFF8021C548FDF7FCFB0120FFF7B2FFBA
:102C10004021C248FDF7F5FB0120FFF7ABFF802103
:102C2000BE48FDF7D4FB05460DE08021BB48FDF70B
:102C3000CEFB05460120FFF79DFF641E1CB9FFF780
:102C4000C2FF012070BD012DEFD04021B348FDF738
:102C5000DAFB0020F6E710B54021B048FDF7D3FBC2
:102C6000FFF76AFF8021AD48FDF7CDFB0220FFF79B
:102C700081FF4021A948FDF7C4FB0220FFF77AFF3E
:102C80004021A648FDF7BFFB10BD10B54021A34869
:102C9000FDF7B9FBFFF750FF8021A048FDF7B1FB1E
:102CA0000220FFF767FF40219C48FDF7AAFB0220A6
:102CB000FFF760FF40219948FDF7A5FB10BD70B5F7
:102CC0000546FFF739FF40219448FDF79CFB00249F
:102CD0001FE09448005D284204D080218F48FDF712
:102CE00090FB03E080218D48FDF78DFB0220FFF76C
:102CF00041FF40218948FDF784FB0220FFF73AFF9E
:102D000040218648FDF77FFB0220FFF733FF601C60
:102D1000C4B2082CDDDB70BD70B505460026FFF798
:102D20001AFF80217D48FDF76CFB002417E040214D
:102D30007A48FDF768FB0220FFF71CFF4021774827
:102D4000FDF75FFB80217548FDF741FB10B1754829
:102D5000005D06430120FFF70DFF601CC4B2082C84
:102D6000E5DB15B9FFF791FF01E0FFF774FF30468F
:102D700070BD2DE9F84F05460E4690464FF000090C
:102D800057E0C5F3072B4FEA4B604FEA106B4BF04F
:102D9000A00AE8B2C11700EB11610912A0EB0121F2
:102DA000C9B20091FFF7F5FE5046FFF788FF4EF6D7
:102DB0006024FFF722FF074607E0FFF71EFF0746E4
:102DC000641E14B90120BDE8F88F002FF5D10098DA
:102DD000FFF775FF4EF66024FFF70FFF074606E08A
:102DE000FFF70BFF0746641E0CB90120EBE7002F2D
:102DF000F6D13078FFF763FF4EF66024FFF7FDFE53
:102E0000074606E0FFF7F9FE0746641E0CB90120ED
:102E1000D9E7002FF6D1FFF7D6FE4FF6FF7400E09A
:102E200000BF2000A4F10104FAD1761C6D1C09F149
:102E30000109C145A5D30020C5E72DE9F84F074694
:102E40000D469146C7F3072B4FEA4B604FEA106BD4
:102E50004BF0A00AF8B2C11700EB11610912A0EB08
:102E60000121C9B20091FFF794FE5046FFF727FFFA
:102E70004EF66024FFF7C1FE804607E0FFF7BDFE77
:102E80008046641E14B90120BDE8F88FB8F1000F28
:102E9000F4D10098FFF713FF4EF66024FFF7ADFE64
:102EA000804606E0FFF7A9FE8046641E0CB90120AB
:102EB000EAE7B8F1000FF5D1FFF76BFE0AF1010167
:102EC000C8B2FFF7FCFE4EF66024FFF796FE804680
:102ED00006E0FFF792FE8046641E0CB90120D3E79E
:102EE000B8F1000FF5D1002605E00120FFF714FF2F
:102EF00028706D1C761CA9F10100B042F5D80020A5
:102F0000FFF70AFF2870FFF75EFE42F2283600BF87
:102F10003000A6F10106FBD100BFB5E7000C01406F
:102F2000FFFF0F00443D0008064C074D06E0E06837
:102F300040F0010394E8070098471034AC42F6D300
:102F4000FDF7D8F84C3D00086C3D000802E008C8C9
:102F5000121F08C1002AFAD170477047002001E013
:102F600001C1121F002AFBD17047000000A24A04D1
:102F700000A24A0400A24A040051250200A24A0409
:102F800000002110422063308440A550C660E770E5
:102F9000088129914AA16BB18CC1ADD1CEE1EFF18D
:102FA0003112100273325222B5529442F772D66235
:102FB000399318837BB35AA3BDD39CC3FFF3DEE3DD
:102FC0006224433420040114E664C774A444855485
:102FD0006AA54BB528850995EEE5CFF5ACC58DD52D
:102FE0005336722611163006D776F6669556B446D5
:102FF0005BB77AA719973887DFF7FEE79DD7BCC77D
:10300000C448E5588668A778400861180228233824
:10301000CCC9EDD98EE9AFF9488969990AA92BB9CC
:10302000F55AD44AB77A966A711A500A333A122A74
:10303000FDDBDCCBBFFB9EEB799B588B3BBB1AAB1C
:10304000A66C877CE44CC55C222C033C600C411CC4
:10305000AEED8FFDECCDCDDD2AAD0BBD688D499D6C
:10306000977EB66ED55EF44E133E322E511E700E14
:103070009FFFBEEFDDDFFCCF1BBF3AAF599F788FBC
:103080008891A981CAB1EBA10CD12DC14EF16FE19C
:103090008010A100C230E3200450254046706760D4
:1030A000B9839893FBA3DAB33DC31CD37FE35EF3EC
:1030B000B1029012F322D232354214527762567224
:1030C000EAB5CBA5A89589856EF54FE52CD50DC53C
:1030D000E234C324A0148104667447642454054474
:1030E000DBA7FAB79987B8975FE77EF71DC73CD78C
:1030F000D326F2369106B0165766767615463456C4
:103100004CD96DC90EF92FE9C899E9898AB9ABA9DB
:103110004458654806782768C018E1088238A32813
:103120007DCB5CDB3FEB1EFBF98BD89BBBAB9ABB2B
:10313000754A545A376A167AF10AD01AB32A923A63
:103140002EFD0FED6CDD4DCDAABD8BADE89DC98D7B
:10315000267C076C645C454CA23C832CE01CC10CB3
:103160001FEF3EFF5DCF7CDF9BAFBABFD98FF89FCB
:10317000176E367E554E745E932EB23ED10EF01E03
:10318000000000000000000000000000000000003F
:103190003F40000000000000000030004000300010
:1031A0004000000009000BC03D000BC03D000900BD
:1031B00018C024407FE0224031800000180024C065
:1031C0001B000D803240018003801C4027401C8082
:1031D00007400040100060000000000000000000F8
:1031E0000000000000001F80204040200000402020
:1031F00020401F8000000000090006001F8006001C
:1032000009000000040004003F80040004000000E6
:103210000010006000000000000000000400040036
:103220000400040004000000000000400000000052
:1032300000000000002001C006003800400000002F
:103240001F802040204020401F80000000001040D0
:103250003FC000400000000018C021402240244030
:103260001840000010802040244024401B800000B3
:1032700002000D0011003FC0014000003C802440CE
:1032800024402440238000001F80244024403440F8
:10329000038000003000200027C03800200000001C
:1032A0001B802440244024401B8000001C0022C0BE
:1032B000224022401F800000000000000840000063
:1032C000000000000000000004600000000000009A
:1032D000000004000A00110020804040090009009D
:1032E0000900090009000000000040402080110092
:1032F0000A000400180020002340240018000000E9
:103300001F802040274029401F400000004007C088
:1033100039000F0001C0004020403FC0244024403D
:103320001B8000001F802040204020403080000093
:1033300020403FC0204020401F80000020403FC070
:1033400024402E4030C0000020403FC024402E00CA
:10335000300000000F001080204022403380020027
:1033600020403FC0040004003FC0204020402040D7
:103370003FC02040204000000060202020203FC0AF
:103380002000200020403FC024400B0030C02040DF
:1033900020403FC020400040004000C03FC03C00F3
:1033A00003C03C003FC0000020403FC00C40230051
:1033B0003FC020001F802040204020401F80000090
:1033C00020403FC024402400180000001F802140FE
:1033D000214020E01FA0000020403FC024402600E4
:1033E00019C0004018C02440244022403180000011
:1033F000300020403FC020403000000020003F80CF
:10340000004000403F80200020003E0001C0070037
:1034100038002000380007C03C0007C0380000001A
:10342000204039C0060039C020400000200038404C
:1034300007C0384020000000304021C026403840FE
:1034400020C00000000000007FE04020402000007D
:10345000000070000C0003800040000000004020CD
:1034600040207FE00000000000002000400020001D
:1034700000000000001000100010001000100010EC
:10348000000000004000000000000000000002807A
:103490000540054003C0004020003FC004400440F8
:1034A0000380000000000380044004400640000048
:1034B00000000380044024403FC00040000003801F
:1034C0000540054003400000000004401FC02440A8
:1034D00024402000000002E0055005500650042062
:1034E00020403FC00440040003C0004000000440EE
:1034F00027C000400000000000100010041027E06A
:103500000000000020403FC00140070004C004400C
:10351000204020403FC000400040000007C00400A1
:1035200007C0040003C00000044007C004400400BA
:1035300003C00040000003800440044003800000FA
:10354000041007F0045004400380000000000380D2
:103550000440045007F00010044007C0024004007B
:1035600004000000000006400540054004C00000C3
:10357000000004001F800440004000000400078099
:103580000040044007C000400400070004C0018060
:1035900006000400060001C0070001C0060000008C
:1035A000044006C0010006C00440000004100710DB
:1035B00004E00180060004000000044005C006404D
:1035C000044000000000000004007BE040200000F8
:1035D000000000000000FFF000000000000040209C
:1035E0007BE004000000000040008000400020005C
:1035F000200040000000000000000000000000006B
:10360000000000000000000000001FCC000C0000C3
:1036100000000000000008003000600008003000DA
:1036200060000000022003FC1E20022003FC1E207C
:103630000220000000000E1811043FFF10840C78D7
:10364000000000000F0010840F3800C007781884B5
:103650000078000000780F8410C411240E9800E454
:1036600000840008080068007000000000000000EE
:103670000000000000000000000007E0181820040F
:1036800040020000000040022004181807E000007B
:10369000000000000240024001800FF00180024063
:1036A000024000000080008000800FF80080008051
:1036B000008000000001000D000E0000000000006E
:1036C000000000000000008000800080008000807A
:1036D000008000800000000C000C000000000000D2
:1036E00000000000000000060018006001800600D5
:1036F00018002000000007F0080810041004080853
:1037000007F000000000080408041FFC0004000487
:103710000000000000000E0C10141024104411844E
:103720000E0C000000000C18100411041104128883
:103730000C700000000000E00320042408241FFC9B
:103740000024000000001F98108411041104108848
:1037500010700000000007F0088811041104188898
:103760000070000000001C00100010FC13001C0082
:103770001000000000000E38114410841084114421
:103780000E38000000000700088C10441044088820
:1037900007F00000000000000000030C030C000014
:1037A0000000000000000000000101060000000011
:1037B0000000000000000080014002200410080802
:1037C0001004000002200220022002200220022019
:1037D000022000000000100408080410022001402C
:1037E0000080000000000E001200100C106C108011
:1037F0000F00000003E00C1813E4142417C4082879
:1038000007D000000004003C03C41C40074000E453
:10381000001C000410041FFC1104110411040E8884
:103820000070000003E00C181004100410041008CD
:103830001C10000010041FFC1004100410040808E1
:1038400007F0000010041FFC1104110417C4100439
:103850000818000010041FFC1104110017C010000C
:103860000800000003E00C181004100410441C7839
:103870000040000010041FFC1084008000801084B1
:103880001FFC10040000100410041FFC100410049E
:103890000000000000030001100110011FFE1000D5
:1038A0001000000010041FFC110403801464181C95
:1038B0001004000010041FFC1004000400040004A5
:1038C000000C000010041FFC1F0000FC1F001FFC68
:1038D0001004000010041FFC0C04030000E010188A
:1038E0001FFC100007F0080810041004100408085A
:1038F00007F0000010041FFC10841080108010805E
:103900000F00000007F0081810241024101C080AEB
:1039100007F2000010041FFC1104110011C0113047
:103920000E0C000400000E1C1104108410841044BE
:103930001C3800001800100010041FFC10041000B8
:103940001800000010001FF8100400040004100408
:103950001FF8100010001E0011E0001C0070138002
:103960001C0010001FC0103C00E01F0000E0103CD5
:103970001FC000001004180C163401C001C016341A
:10398000180C100410001C00130400FC13041C008D
:10399000100000000804101C1064108413041C04A0
:1039A000101800000000000000007FFE40024002EE
:1039B00040020000000030000C0003800060001C8A
:1039C0000003000000004002400240027FFE0000B1
:1039D0000000000000000000200040004000400007
:1039E00020000000000100010001000100010001B1
:1039F0000001000100004000400020000000000025
:103A0000000000000000009801240144014401442A
:103A100000FC000410001FFC008801040104008861
:103A2000007000000000007000880104010401041F
:103A300000880000000000700088010401041108E3
:103A40001FFC0004000000F801440144014401444B
:103A500000C800000000010401040FFC110411045F
:103A600011001800000000D601290129012901C90F
:103A70000106000010041FFC008401000100010485
:103A800000FC000400000104190419FC00040004F7
:103A9000000000000000000300010101190119FEEF
:103AA0000000000010041FFC0024004001B4010CC1
:103AB000010400000000100410041FFC00040004B6
:103AC00000000000010401FC0104010001FC0104EC
:103AD000010000FC010401FC00840100010001045C
:103AE00000FC0004000000F80104010401040104CA
:103AF00000F80000010101FF0085010401040088B5
:103B0000007000000000007000880104010401053D
:103B100001FF00010104010401FC00840104010013
:103B200001800000000000CC0124012401240124B4
:103B30000198000000000100010007F801040104E1
:103B400000000000010001F8000400040004010866
:103B500001FC0004010001800170000C00100160F4
:103B60000180010001F0010C003001C00030010CA7
:103B700001F0010000000104018C00740170018C4F
:103B800001040000010101810171000E00180160B3
:103B90000180010000000184010C01340144018412
:103BA000010C0000000000000000000001003EFCCD
:103BB000400240020000000000000000FFFF000083
:103BC000000000000000400240023EFC0100000036
:103BD0000000000000006000800080004000400005
:103BE000200020000040404030FE03000008041088
:103BF000046007820001FFFE0E00058008601010BF
:103C0000000800000001008103021C0400080030CD
:103C100000C0FF0000C000300208040418020001C8
:103C200000010000020022002A002AFF2AA82AA878
:103C30002AA8FEA82AA82AAA2AA92AFE2A0022001F
:103C40000200000002000204420E4214422442C458
:103C500043044204420442244214420C420702003C
:103C600002000000000000001FF8111011101110D8
:103C70001110FFFE11111111111111111FF9000185
:103C8000000F0000010041004100410041004102DD
:103C9000410147FE4500490051006100410001001B
:103CA00001000000200824102260218026413932C2
:103CB00002040C18F060138010601018140418022D
:103CC0000001000002000202420433F80004000276
:103CD0003FF22022404200023FFE204220223FC20B
:103CE0000002000002010201420222041A1803E04D
:103CF0000200FE00020003FC0A021202620202023B
:103D0000021E000000001FF800000000FFFF02007C
:103D1000040018FEF084188416FC1084108410FE31
:103D20001000000000000000000000000000000083
:103D30000000000000000000000000000000000083
:103D40000000000080402010080402016C3D0008C3
:103D500000000020AC0000004C2F0008183E0008B6
:103D6000AC000020540800005C2F00080000000098
:103D700001020304010203040607080902040608FD
:103D8000000000000002030000000000000000002E
:103D90000000000000000000000000000000000023
:103DA0000000000000000000000000000000000013
:103DB0000000000000000000000000000000000003
:103DC00000000000000000000000000000000000F3
:103DD000ACF7FF1FE8F7FF1F107AFF1FACF7FF1FBC
:103DE000107AFF1F20F4F01F5000F81F5000F81F3A
:103DF0009075FF1F20F4F01F00000000000000007D
:103E000000000000E80300000000000000000000C7
:083E100000C00080000000006A
:04000005080000ED02
:00000001FF
