:020000040800F2
:10000000D0040020E11A00081D1C00081F1C000875
:10001000231C0008271C00082B1C000800000000FF
:100020000000000000000000000000002F1C00087D
:10003000311C000800000000331C0008351C0008BB
:10004000F71A0008F71A0008F71A0008F71A00084C
:10005000F71A0008F71A0008F71A0008F71A00083C
:10006000F71A0008F71A0008F71A0008F71A00082C
:10007000F71A0008F71A0008F71A0008F71A00081C
:10008000F71A0008F71A0008F71A0008F71A00080C
:10009000F71A0008F71A0008F71A0008F71A0008FC
:1000A000F71A0008F71A0008F71A0008F71A0008EC
:1000B0006F1C0008F71A0008F71A0008F71A000862
:1000C000F71A0008F71A0008F71A0008F71A0008CC
:1000D000F71A00084B1B0008F71A0008F71A000867
:1000E000F71A0008F71A0008F71A0008DFF80CD012
:1000F00002F05AF800480047931B0008D004002083
:1001000031490143314A1160704770B50021002325
:100110000F22C4780CB32D4C246804F4E064C4F5B9
:10012000E064210AC1F10403CA40447804FA03F1EF
:100130008478144021430901254C0678A1550478A0
:1001400004F01F050124AC4005786D114FF0E02646
:1001500006EB8505C5F8004109E0047804F01F05A9
:100160000124AC401B4D0678761145F8264070BD41
:10017000194A0A400243154B1B1F1A60704739B1D8
:10018000124A121D12680243104B1B1D1A6006E032
:100190000E4A121D126882430C4B1B1D1A607047D9
:1001A000042808D14FF0E021096941F004014FF023
:1001B000E022116107E04FF0E021096921F004011C
:1001C0004FF0E022116170470000FA050CED00E0ED
:1001D00000E400E080E100E080FFFF1F10B504466E
:1001E000C549601A8C422FD009DCC448201810D0B1
:1001F000B0F5806F16D0B0F5006F4AD11BE0B0F5B6
:10020000806F2AD0B0F5006F30D0B0F5406F40D18C
:1002100035E00121042000F0F9FA0021042000F06B
:10022000F5FA37E00121082000F0F0FA002108205B
:1002300000F0ECFA2EE00121102000F0E7FA002196
:10024000102000F0E3FA25E00121202000F0DEFA82
:100250000021202000F0DAFA1CE00121402000F00B
:10026000D5FA0021402000F0D1FA13E001218020CE
:1002700000F0CCFA0021802000F0C8FA0AE0012149
:10028000080200F0C3FA00214FF4807000F0BEFABB
:1002900000E000BF00BF10BD10B50121084600F00E
:1002A000B5FA0021012000F0B1FA10BD2DE9F041AE
:1002B000024600250026002000230024002791F894
:1002C00003C00CF00F0591F803C01CF0100F03D011
:1002D00091F802C04CEA050591F800C0BCF1000F8E
:1002E00031D0146800202BE04FF0010C0CFA00F321
:1002F000B1F800C00CEA03069E4220D183004FF003
:100300000F0C0CFA03F7BC4305FA03FC4CEA040497
:1003100091F803C0BCF1280F06D14FF0010C0CFA84
:1003200000FCC2F814C00AE091F803C0BCF1480F09
:1003300005D14FF0010C0CFA00FCC2F810C0401CB3
:100340000828D1D31460B1F800C0BCF1FF0F34DD30
:10035000546800202EE000F1080C4FF0010808FA64
:100360000CF3B1F800C00CEA03069E4221D18300D1
:100370004FF00F0C0CFA03F7BC4305FA03FC4CEAF0
:10038000040491F803C0BCF1280F05D100F1080C5A
:1003900008FA0CF8C2F8148091F803C0BCF1480FB9
:1003A00007D100F1080C4FF0010808FA0CF8C2F868
:1003B0001080401C0828CED35460BDE8F0814FF671
:1003C000FF710180022181700421C17070470246D3
:1003D000002093680B4201D0012000E0002070470C
:1003E0000146886880B2704702460020D3680B42FD
:1003F00001D0012000E0002070470146C86880B2AB
:10040000704701617047416170470AB1016100E0C6
:1004100041617047C16070474FF480320A43826186
:100420008161826182698269704702460020344B93
:1004300018684FF68073184040EA02100843304BAA
:10044000186070472F49C8617047F0B50A4600230D
:100450000024002100252A4E7168C0F3034583B2B1
:1004600000F44016B6F5401F08D121F07061244E0B
:10047000766826F07066224F7E6012E000F48016E7
:10048000B6F5801F06D1032606FA05F4A14341F014
:10049000706106E0460D360103FA06F6B14341F0FD
:1004A000706122B1460D360103FA06F63143144E4F
:1004B0007160F0BD30B500228B071C0F0F2303FACB
:1004C00004F20F4B08338C1053F8243093430C4C38
:1004D00008348D1044F8253023468C1053F824300E
:1004E0008C07240F00FA04F42343054C08348D10C4
:1004F00044F8253030BD00000014014000F8FEBF74
:100500000000014000002042DC48006840F001008B
:10051000DA49086008464068D9490840D749486028
:1005200008460068D7490840D44908600846006872
:1005300020F4802008600846406820F4FE004860EF
:10054000002088607047CD49096821F48031CB4A8A
:1005500011601146096821F480211160B0F5803FD7
:1005600003D0B0F5802F0ED106E0C449096841F4EC
:100570008031C24A116007E0C049096841F4A021F6
:10058000BE4A116000E000BF00BF704710B50146D1
:100590000022002300204A11012A02D1B74C23680F
:1005A00006E0022A02D1B54C236A01E0B34C636A2B
:1005B00001F01F02012494401C4201D0012000E000
:1005C000002010BD38B5002000900024002500BF99
:1005D0003120FFF7DBFF05460098401C00901DB955
:1005E0000098B0F5A06FF3D13120FFF7CFFF08B12D
:1005F000012400E00024204638BD014600209F4A27
:10060000106820F0F80040EAC100106070479E4971
:100610000860704702460020984B586820F47C1010
:1006200042EA01031843954B5860704796490866A3
:10063000704701460020914A506820F003000843AB
:10064000506070478D48406800F00C0070470146CC
:1006500000208A4A506820F0F0000843506070473C
:1006600001460020854A506820F4E060084350604D
:10067000704701460020814A506820F4605040EAEB
:10068000C1005060704729B17C4A527A02437B4BCB
:100690005A7204E0794A527A8243784B5A72704710
:1006A0007A490860704701460020744A506820F477
:1006B00040400843506070470021754A11706F4AEE
:1006C00082F82010012802D0042808D103E001217B
:1006D0006F4A117004E005216D4A117000E000BFFF
:1006E00000BF70476B49086070476449096A01435D
:1006F000624A11627047674944390860704730B5F3
:1007000000210022002400235C4D6D6805F00C01DF
:1007100021B1042905D0082923D105E05E4D0560EB
:1007200022E05D4D05601FE0544D6D6805F47012C8
:10073000022505EB9242514D6D6805F480341CB9D9
:10074000564D554305600BE04C4D6D6815F4003F68
:1007500003D0524D5543056002E04F4D55430560AF
:1007600002E04D4D056000BF00BF444D6D6805F0CF
:10077000F00109094A4D6B5C0568DD4045603F4D5D
:100780006D6805F4E061090A454D6B5C4568DD4024
:1007900085603A4D6D6805F46051C90A404D6B5C47
:1007A0004568DD40C560354D6D6805F44041890BF5
:1007B0003C4D6B5CC568B5FBF3F5056130BD29B1F7
:1007C0002E4A526902432D4B5A6104E02B4A52696A
:1007D00082432A4B5A61704729B1284A92690243E1
:1007E000264B9A6104E0254A92698243234B9A6121
:1007F000704729B1214AD2690243204BDA6104E0F3
:100800001E4AD26982431D4BDA61704729B11B4AE7
:10081000D2680243194BDA6004E0184AD268824376
:10082000164BDA60704729B1144A12690243134B20
:100830001A6104E0114A12698243104B1A61704731
:1008400014494039086070470F49C86470470B4924
:10085000C87170470948406A40F080700749486293
:10086000704701460020054A92680A4201D00120E3
:1008700000E0002070470149887270470010024074
:100880000000FFF8FFFFF6FE00004242D80042429F
:10089000201002408004424200127A0000093D000C
:1008A000000000201000002010B50446BD482018AC
:1008B0000FD0B0F5806F16D0B0F5784F1DD1012163
:1008C0000803FFF7A3FF00214FF48050FFF79EFFBE
:1008D00014E001218803FFF7A6FF00214FF48040B8
:1008E000FFF7A1FF0AE00121C803FFF79CFF0021E9
:1008F0004FF40040FFF797FF00E000BF00BF10BDBE
:1009000010B50022028802F441520B884C88234320
:100910008C882343CC8823430C8923434C8923436D
:100920008C892343CC8923431A430280838B4FF263
:10093000FF74234083830B8A038210BD2DE9F047A7
:1009400086B005460C464FF0000902274FF000081C
:100950004FF0010A0026A88B4FF240010840A883FF
:1009600002202884B5F81C902089022801D100BFFC
:1009700031E0A08810B94FF0010A01E04FF0020AFF
:1009800001A8FFF7BCFEE088B0F5007F0AD101980E
:1009900000EB8000400021890902B0FBF1F0401D0E
:1009A00086B20BE04FEA4A1021894843019901EBD6
:1009B00081014900B1FBF0F0401D86B20A20B6FB70
:1009C000F0F606F00108A6EB0800C0F34F074FF65B
:1009D000FF7000EA0828022F01DBFF2F02DD02274B
:1009E0004FF0000847EA0800E1880843288420887F
:1009F00040F4006061880843A18808436189084386
:100A000040EA0909A5F81C9006B0BDE8F08700216E
:100A1000018041808180C180018141818181C181CA
:100A20000721018270470021018041808180C180BF
:100A30000221018100214181704721B1028842F0E9
:100A40004002028004E002884FF6BF731A40028021
:100A5000704721B1828B42F48062828304E0828BF2
:100A60004FF6FF331A408283704730B500240023CD
:100A70000C110125A540ABB21AB185881D438580B4
:100A800002E085889D43858030BD1AB183880B4381
:100A9000838002E083888B43838070478181704725
:100AA000014688897047A1F57E42FF3A04D002884A
:100AB00042F48072028004E002884FF6FF631A401D
:100AC0000280704721B1828842F00402828004E0F3
:100AD00082884FF6FB731A408280704702884FF27B
:100AE000FF731A40028002880A430280704701881F
:100AF00041F480510180704721B1028842F40052D4
:100B0000028004E002884DF6FF731A4002807047AD
:100B100002460020012901D0108B00E0908A704726
:100B20000146088A7047B1F5804F04D1028842F42B
:100B30008042028004E002884BF6FF731A40028074
:100B400070470246002013890B4201D0012000E0CB
:100B500000207047CA4302817047F0B5024600206A
:100B600000240023002501F00F070126BE40B4B287
:100B70000B1101269E40B3B2968806EA030516893A
:100B8000264202D00DB1012000E00020F0BD10B5DA
:100B9000002201F00F040123A3409AB2D343038142
:100BA00010BD000000C8FFBF10B50446F749601A29
:100BB0008C4245D00CDCB4F1804F1DD0F448201895
:100BC00023D0B0F5806F29D0B0F5006F54D12EE05E
:100BD000B0F5806F3DD0B0F58E3F03D0B0F5923FB9
:100BE0004AD13FE00121C802FFF710FE00214FF477
:100BF0000060FFF70BFE40E001210846FFF713FEFF
:100C000000210120FFF70FFE37E001210220FFF74E
:100C10000AFE00210220FFF706FE2EE0012104203B
:100C2000FFF701FE00210420FFF7FDFD25E0012173
:100C30000820FFF7F8FD00210820FFF7F4FD1CE075
:100C400001211020FFF7EFFD00211020FFF7EBFD41
:100C500013E001212020FFF7E6FD00212020FFF70F
:100C6000E2FD0AE001214803FFF7D0FD00214FF427
:100C70000050FFF7CBFD00E000BF00BF10BD0288B1
:100C800002F08F020280CA884B881A4303881A43F5
:100C900002808A8882850A880285BE4A904202D0F4
:100CA000BD4A904201D10A7A0286012282827047AF
:100CB00070B5002400220023058C4FF6FE763540E7
:100CC0000584028C8388048B4FF68F752C400D8829
:100CD0002C43751E2A400D892A434D882A43CD880E
:100CE0008586AC4DA84202D0AB4DA84213D14FF639
:100CF000F7752A404D892A434FF6FB752A408D88A7
:100D00002A4347F6FF652B4047F6FF552B408D8958
:100D10002B43CD892B4383800483028470BD70B53F
:100D2000002400220023058C4FF6EF763540058421
:100D3000028C8388048B48F6FF752C400D884FF693
:100D4000FF7606EA05252C434FF6DF752A400D890C
:100D500006EA05152A434D8806EA05152A43CD887B
:100D600005878C4DA84202D08B4DA8421DD14FF66D
:100D70007F752A404D894FF6FF7606EA05152A430E
:100D80004FF6BF752A408D8806EA05152A4347F6B7
:100D9000FF352B4047F2FF752B408D8906EA85050C
:100DA0002B43CD8906EA85052B4383800483028487
:100DB00070BD70B5002400220023058C4FF6FF663D
:100DC00035400584028C8388848B4FF68F752C40C8
:100DD0000D882C434FF6FF552A400D894FF6FF76BC
:100DE00006EA05252A434D8806EA05252A43CD88CB
:100DF0008587684DA84202D0674DA8421DD14FF2A9
:100E0000FF752A404D894FF6FF7606EA05252A43ED
:100E10004FF6FF352A408D8806EA05252A4346F617
:100E2000FF752B4045F6FF752B408D8906EA0515A9
:100E30002B43CD8906EA05152B43838084830284E6
:100E400070BD70B5002400220023058C4EF6FF769D
:100E500035400584028C8388848B48F6FF752C40CE
:100E60000D884FF6FF7606EA05252C434DF6FF75F3
:100E70002A400D8906EA05352A434D8806EA0535DC
:100E80002A43CD88A0F84050424DA84202D0424D9E
:100E9000A84207D1C3F30D038D894FF6FF7606EA0A
:100EA00085152B4383808483028470BD828B4FF22F
:100EB000FF331A408283828B4FF6FF7303EA0123CC
:100EC0001A4382837047F0B50C4615460021002274
:100ED0000026078C4EF6FF7C07EA0C070784818BFF
:100EE000028C4FF6FF7707EA043640F6FF47394099
:100EF0004FF6FF7707EA05274FF6FF7C0CEA033C25
:100F000047EA0C0739434DF6FF773A4046F48057DD
:100F10003A4381830284F0BD828B4FF6F3731A400B
:100F20008283828B0A4382837047F0B50C46154654
:100F3000002100220026078C4FF6FF6C07EA0C0701
:100F40000784818B028C4FF6FF7707EA04264FF661
:100F50000C7739404FF6FF7707EA03172F433943E1
:100F60004FF6FF573A4046F480773A438183028434
:100F7000F0BD028B4FF2FF331A400283028B4FF613
:100F8000FF7303EA01231A430283704700100040F5
:100F900000FCFFBF002C014000340140F0B50C46BE
:100FA0001546002100220026078C4FF6EF7C07EA49
:100FB0000C070784018B028C4FF6FF7707EA0416B3
:100FC00040F6FF4739404FF6FF7707EA03373943CA
:100FD0004FF6FF7707EA052739434FF6DF773A40A8
:100FE00046F010073A4301830284F0BD028B4FF6AE
:100FF000F3731A400283028B0A4302837047F0B5F1
:101000000C46154600210022068C4FF6FE773E4026
:101010000684018B028C4FF60C7631407E1C06EA6A
:1010200003162E4331437E1E324044F00106324304
:1010300001830284F0BD70B505460C46208850B986
:101040002389A28861882846FFF7D9FFE1882846CE
:10105000FFF7CCFF25E0208804280AD12389A28845
:1010600061882846FFF79AFFE1882846FFF781FF4D
:1010700017E0208808280AD12389A2886188284699
:10108000FFF753FFE1882846FFF746FF09E0238971
:10109000A28861882846FFF716FFE1882846FFF7F7
:1010A00005FF70BD2DE9F04105460C4600260127DD
:1010B000608808B9022600E00026A088012801D136
:1010C000022700E001272088A0B92389A28861882F
:1010D0002846FFF794FFE1882846FFF787FF23891A
:1010E0003A4631462846FFF759FFE1882846FFF780
:1010F00040FF13E02389A28861882846FFF74EFF4E
:10110000E1882846FFF735FF23893A4631462846CD
:10111000FFF775FFE1882846FFF768FFBDE8F0811B
:101120000A884B881A438B881A43CB881A430B8949
:101130001A434B891A438B891A43A0F844207047FD
:101140004FF6FF71818000210180C18041800172D2
:1011500070470021018041808180C18001814181EF
:101160008181C181704700210180418001218180FE
:101170000021C18001817047002101804180818070
:10118000C180018141818181704721B1028842F093
:101190000102028004E0028840F2FE331A4002801D
:1011A000704731B1B0F8442042F40042A0F8442026
:1011B00005E0B0F84420C2F30E02A0F844207047C6
:1011C0001AB183890B43838102E083898B43838136
:1011D00070478182704741EA0203A0F848307047A7
:1011E0001AB183890B43838102E083898B43838116
:1011F000704701894FF6F8721140018170470A4625
:10120000002101894FF68F73194011430181704706
:1012100030B504460D4629462046FFF7F0FF2089E9
:1012200040F00700208130BD2DE9F04104460D4615
:1012300016461F46602D06D13B4601223146204608
:10124000FFF7ACFE05E03B46012231462046FFF7A2
:10125000D6FE29462046FFF7D2FF208940F007003E
:101260002081BDE8F08170B50C4600210189C9B22A
:1012700044EA02054FF6FF7606EA03263543294382
:10128000018170BD2DE9F04105460E46174698468E
:10129000002443463A4631462846FFF7E4FF2C89AE
:1012A0004FF6F870044044F007044FF68F70044086
:1012B00044F070042C81BDE8F081F0B504460D4681
:1012C00016461F463B46324629462046FFF7CBFFCF
:1012D000208940F480402081F0BD018582827047E2
:1012E0000A460021018840F28F33194011430180E2
:1012F0007047F0B50C4615461E460021002200231B
:101300000189028B038C4FF6F877394021434FF661
:10131000FC473A4040F201173A434FF6DD773B4035
:101320004FF6FF7707EA06172F433B4301810283FD
:101330000384F0BD0A460021018B4FF68F731940DC
:101340001143018370470A460021018B48F6FF7361
:1013500019404FF6FF7303EA0223194301837047D4
:101360000A460021818B4FF68F7319401143818308
:1013700070470A460021818B48F6FF7319404FF6EB
:10138000FF7303EA022319438183704721B1028866
:1013900042F08002028004E0028840F27F331A406B
:1013A0000280704721B1828842F00402828004E00A
:1013B00082884FF6FB731A408280704721B1828881
:1013C00042F00802828004E082884FF6F7731A40E8
:1013D0008280704721B1828842F00102828004E05D
:1013E00082884FF6FE731A40828070470A460021B9
:1013F000018B4FF6F77319401143018370470A467A
:101400000021018B4FF2FF7319404FF6FF7303EA7F
:1014100002231943018370470A460021818B4FF64E
:10142000F77319401143818370470A460021818B6D
:101430004FF2FF7319404FF6FF7303EA022319437B
:10144000818370470A460021018B4FF6FB731940D8
:101450001143018370470A460021018B4FF6FF3389
:1014600019404FF6FF7303EA0223194301837047C3
:101470000A460021818B4FF6FB731940114381838B
:1014800070470A460021818B4FF6FF3319404FF613
:10149000FF7303EA02231943818370470A46002140
:1014A000018B4FF67F7319401143018370470A4641
:1014B0000021018BC1F30E014FF6FF7303EA0223F3
:1014C0001943018370470A460021818B4FF67F73D1
:1014D00019401143818370470A460021818BC1F373
:1014E0000E014FF6FF7303EA02231943818370470D
:1014F0000A460021018C4FF6FD7319401143018407
:1015000070470A460021018C4FF6F77319401143CA
:10151000018470470A460021018C4FF6DF731940A1
:101520004FF6FF7303EA02131943018470470A461A
:101530000021018C4FF67F7319404FF6FF7303EAC9
:1015400002131943018470470A460021018C4FF6AB
:10155000FF5319404FF6FF7303EA02231943018436
:1015600070470A460021018C4FF2FF7319404FF675
:10157000FF7303EA02231943018470470A460021DE
:10158000018C4DF6FF7319404FF6FF7303EA0233E7
:1015900019430184704710B5038C01248C40A34388
:1015A0000384038C02FA01F4A4B22343038410BD24
:1015B00010B5038C04248C40A3430384038C02FAEB
:1015C00001F4A4B22343038410BD30B5038C01247D
:1015D0008C40A343038409B1082918D100F11803F2
:1015E00003EB61031B684FF68F74234000F118046E
:1015F00004EB6104236000F1180303EB61031B6833
:10160000134300F1180404EB610423601FE00B1F77
:10161000C3F34E0400F118031B5948F6FF7423402E
:101620000C1FC4F34E0500F1180463510B1FC3F3E4
:101630004E0400F118031B594FF6FF7404EA02240C
:1016400023430C1FC4F34E0500F11804635130BD51
:1016500021B1028842F00202028004E0028840F2D6
:10166000FD331A400280704721B1028842F0040223
:10167000028004E0028840F2FB331A400280704787
:1016800021B1828842F08002828004E082884FF695
:101690007F731A4082807047028840F2F7331A4005
:1016A000028002880A430280704782884FF68F7357
:1016B0001A40828082880A438280704702894FF6EE
:1016C000F8731A40028102890A4302817047028935
:1016D0004FF67F731A40028102890A4302817047E4
:1016E0008184704781857047818670470187704784
:1016F00081877047A0F8401070470288D2B20280FC
:1017000002880A43028070470146888E704701466E
:10171000088F70470146888F70470146B1F8400036
:1017200070470146888C70470146088D7047024615
:101730000020138A0B4201D0012000E000207047F6
:10174000CA430282704730B50246002000230024BD
:10175000158A05EA0103958905EA010413B10CB164
:10176000012000E0002030BDCA4302827047000023
:1017700010B50446D749601A8C422BD006DCD648F7
:10178000201813D0B0F5806F38D119E0B0F5806F14
:101790002AD0B0F56C4F31D101218803FFF736F81C
:1017A00000214FF48040FFF731F828E00121480480
:1017B000FFF739F800214FF40030FFF734F81EE04E
:1017C00001218804FFF72FF800214FF48020FFF754
:1017D0002AF814E00121C804FFF725F800214FF48E
:1017E0000020FFF720F80AE001210805FFF71BF8A9
:1017F00000214FF48010FFF716F800E000BF00BF93
:1018000010BD2DE9F04786B005460E460024A246DD
:1018100000BF00BF00272F462C8A4CF6FF70044003
:10182000F08804432C82AC894EF6F3100440B08853
:1018300031890843718908430443AC81AC8A4FF66F
:10184000FF400440B0890443AC8201A8FEF757FF73
:10185000A248874202D1DDF810A001E0DDF80CA01B
:101860000AEBCA0000EB0A1031688900B0FBF1F8FE
:101870006420B8FBF0F004012009642101FB108909
:10188000322000EB0910B0FBF1F000F00F00044330
:101890002C8106B0BDE8F0874FF41651016000219D
:1018A0008180C18001810C214181002181817047AB
:1018B00010B502460020108A4FF2FF0318400B8833
:1018C0004C8823438C882343CC88234318431082BD
:1018D00010BD0021018041808180C180704721B10D
:1018E000828942F40052828104E082894DF6FF73BE
:1018F0001A4082817047F0B5034600240026002577
:1019000000201846C1F3421401F01F06012707FA10
:1019100006F5012C01D10C3004E0022C01D110306D
:1019200000E014301AB107682F43076002E007682F
:10193000AF430760F0BD1AB1838A0B43838202E094
:10194000838A8B4383827047028A4FF6F0731A4072
:101950000282028A0A430282704782894FF2FF7331
:101960001A40828182890A438281704721B182892B
:1019700042F00202828104E082894FF6FD731A4030
:1019800082817047028A4FF6DF731A400282028A10
:101990000A430282704721B1028A42F480420282E5
:1019A00004E0028A4BF6FF731A4002827047C1F3CB
:1019B00008028280704701468888C0F3080070479B
:1019C000818941F0010181817047028BD2B202838B
:1019D000028B42EA012202837047028B02F47F42AB
:1019E0000283028B0A430283704721B1828A42F04C
:1019F0002002828204E0828A4FF6DF731A408282DC
:101A0000704721B1828A42F01002828204E0828A09
:101A10004FF6EF731A408282704721B1828A42F0FA
:101A20000802828204E0828A4FF6F7731A408282AB
:101A30007047828A4FF6FB731A408282828A0A4379
:101A40008282704721B1828A42F00202828204E0DF
:101A5000828A4FF6FD731A40828270470246002048
:101A600013880B4201D0012000E000207047CA43D8
:101A70000280704770B502460B4600240021002505
:101A80000020C3F3421503F01F01012606FA01F1FD
:101A9000012D02D19689314006E0022D02D1168A2D
:101AA000314001E0968A31401C12012606FA04F406
:101AB0001688344011B10CB1012000E0002070BD47
:101AC00010B5002200230A1201249440A3B2DC4383
:101AD000048010BD004C004000BCFFBF0038014036
:101AE00005480047FEE7FEE7FEE7FEE7FEE7FEE704
:101AF000FEE7FEE7FEE7FEE7ED000008002000E05D
:101B0000401C40F6FF718842FAD37047002007E07E
:101B1000002100E0491C4FF6FF729142FAD3401CAD
:101B20000F28F5D3704770B504460D463548008838
:101B3000E1B23448FFF73BFF00BF40213148FFF7D7
:101B40008DFF0128F9D1204670BD10B52E480078D0
:101B50000E2815DA2D48006890B940F22551294821
:101B6000FFF788FF78B12748FFF725FFC1B2264865
:101B700002780078401C244B18702548815402E0FC
:101B800001202249086040F225511E48FFF798FFC6
:101B900010BD00F036F900F0B9F830244FF40061C0
:101BA0001C48FEF72EFC002519E020211A48FEF7FC
:101BB0002AFC14F0800F05D14FF480611548FEF720
:101BC00022FC04E04FF480611248FEF71AFC202149
:101BD0001148FEF716FC6006040E681CC5B2082DFD
:101BE000E3DB0DE0FFF792FF4FF400510948FEF7E9
:101BF00008FCFFF78BFF4FF400510648FEF703FC8B
:101C0000F0E7000000380140600000205C00002088
:101C10007C00002000100140000C0140704700BF14
:101C2000FEE700BFFEE700BFFEE700BFFEE770472C
:101C30007047704710B500F04EFA01212C48FEF7AE
:101C4000C6FB2C4908700846007878B92A48007805
:101C5000642805DA28480078401C2749087005E008
:101C6000FF202649087000202349087010BD10B5D8
:101C700002214807FFF767FDA0B102214807FFF7DF
:101C800073FD4FF08040FFF73FFD1D490880084677
:101C900000881C4A1288104481B24FF08040FFF740
:101CA00023FD18E004210807FFF74DFD98B104213A
:101CB0000807FFF759FD4FF08040FFF728FD104956
:101CC000088008460088104A1288104481B24FF0FC
:101CD0008040FFF70BFD4FF08040FFF722FD0849E1
:101CE000088000214FF08040FFF7FAFC10BD000093
:101CF0000008014058000020590000205A00002030
:101D000070000020740000207600002008B520201C
:101D1000ADF8000010208DF8030003208DF80200BC
:101D20006946FA48FEF7C2FA4FF44060ADF8000089
:101D300010208DF8030003208DF802006946F44856
:101D4000FEF7B4FA01214820FEF746FD01213C20B0
:101D5000FEF742FD4FF40050ADF8000010208DF862
:101D6000030003208DF802006946E948FEF79EFA59
:101D70000120ADF8000048208DF8030003208DF805
:101D800002006946E348FEF791FA4020ADF80000F2
:101D900010208DF8030002208DF802006946DB4810
:101DA000FEF784FA8020ADF8000010208DF80300C3
:101DB00002208DF802006946D448FEF777FA4021E8
:101DC000D248FEF71EFB8021D048FEF71AFB4FF4E5
:101DD0008060ADF8000004208DF803006946CD480E
:101DE000FEF764FA4FF40070ADF8000003208DF8A0
:101DF000020018208DF803006946C648FEF756FA1F
:101E000008BD10B501210846FEF7D9FC0121880361
:101E1000FEF7E2FC01210846FEF7EBFC10BD08B519
:101E200000214FF00060FEF7A3F94FF4E060FEF7E9
:101E300067F925208DF8000000208DF801008DF84D
:101E4000020001208DF803006846FEF75EF91C20B1
:101E50008DF8000000208DF8010001208DF80200AF
:101E60008DF803006846FEF750F908BD1FB54FF422
:101E7000165000900020ADF80400ADF80600ADF853
:101E80000800ADF80C000C20ADF80A006946A24825
:101E9000FFF7B7FC012240F225519F48FFF72BFDC9
:101EA00001219D48FFF71BFD1FBD00B587B04FF610
:101EB000FF70ADF814000020ADF81000ADF816006A
:101EC000ADF8120004A94FF08040FEF7D8FE0122C1
:101ED00004210807FFF701FA0020ADF800000120F7
:101EE000ADF802008D480088ADF806000020ADF87E
:101EF000080069464FF08040FEF7DAFE00214FF0FF
:101F00008040FFF773FA0120ADF802008448008892
:101F1000ADF8060069464FF08040FEF700FF002153
:101F20004FF08040FFF76BFA012206219007FFF780
:101F300047F901218807FFF728F907B000BD00B570
:101F400087B0012141F20400FEF746FCE020ADF825
:101F5000040003208DF8060018208DF8070001A961
:101F60006C48FEF7A3F91020ADF8040003208DF8AB
:101F7000060010208DF8070001A96648FEF796F9C3
:101F80000020ADF808004FF48270ADF80A00002080
:101F9000ADF80C000220ADF80E000120ADF81000E5
:101FA0004002ADF812000020ADF81400ADF81600A4
:101FB0000720ADF8180002A95A48FEF7A1FC01213C
:101FC0005848FEF73AFD07B000BD00B587B00121C3
:101FD0008803FEF70EFC01210820FEF7FDFB4FF4FD
:101FE0006040ADF8040003208DF8060018208DF83D
:101FF000070001A94548FEF759F94FF48050ADF8A4
:10200000040003208DF8060010208DF8070001A9B8
:102010003E48FEF74BF94FF480513C48FEF7F3F988
:102020000020ADF808004FF48270ADF80A000020DF
:10203000ADF80C000220ADF80E000120ADF8100044
:102040004002ADF812000020ADF81400ADF8160003
:102050000720ADF8180002A93348FEF751FC012112
:102060003148FEF7EAFC07B000BD30B52F480068E4
:102070004FF47A72B0FBF2F1B1F1807F00D31DE032
:1020800021F07F40401E4FF0E022506150170F2298
:10209000002807DA13071D0E254B00F00F04241F3C
:1020A0001D5503E013071C0E224B1C5400BF0020DB
:1020B0004FF0E02290610720106100BF30BD1E4943
:1020C000086000BF1C490A680968491E1A4B19605C
:1020D000002AF7D170471848006820B116480068F8
:1020E000401E1549086070470246002105E0491C62
:1020F000B1F5FA6F01D9002070470A48008910F045
:10210000020FF4D00748828100211DE0000C01403D
:102110000010014000080140003801407400002018
:10212000760000200030014000380040EC2100081B
:1021300018ED00E000E400E078000020491CB1F553
:10214000FA6F01D90020D7E71548008910F0010F78
:10215000F4D013488089C0B2CEE70246002105E0E2
:10216000491CB1F5FA6F01D9002070470D4800886D
:1021700010F0020FF4D00B48001D0280002105E092
:10218000491CB1F5FA6F01D90020EEE70548008837
:1021900010F0010FF4D00348001D0088C0B2E4E73E
:1021A0000030014008380040064C074D06E0E0686A
:1021B00040F0010394E8070098471034AC42F6D38E
:1021C000FDF798FF002200082022000802E008C85E
:1021D000121F08C1002AFAD170477047002001E0A1
:1021E00001C1121F002AFBD17047000000A24A045F
:1021F00000A24A0400A24A040051250200A24A0497
:1022000020220008000000207C000000CC210008F3
:102210009C2200087C00002054040000DC210008FF
:10222000000000000102030401020304060708097C
:102230000204060800000000000203000000000085
:10224000000000000000000000000000000000008E
:10225000000000000000000000000000000000007E
:10226000000000000000000000000000000000006E
:10227000000000000000000000000000000000005E
:10228000000000000000000000000000000000004E
:0C2290000000000000C000800000000002
:04000005080000ED02
:00000001FF
